:100000000C94F2000C941A010C941A010C941A012D
:100010000C941A010C941A010C941A010C941A01F4
:100020000C941A010C941A010C941A010C941A01E4
:100030000C941A010C9423060C941A010C941A01C6
:100040000C9420120C941A010C94F1050C94CB051D
:100050000C941A010C941A010C941A010C941A01B4
:100060000C9480060C941A0100407A10F35A00A0F8
:10007000724E18090010A5D4E80000E87648170071
:1000800000E40B54020000CA9A3B000000E1F505B1
:10009000000080969800000040420F000000A086FB
:1000A00001000000102700000000E803000000002D
:1000B0006400000000000A000000000001000000D1
:1000C00000002C76D888DC674F0823DFC1DFAE59EB
:1000D000E1B1B796E5E3E453C63AE651997696E87E
:1000E000E6C28426EB898C9B62ED407C6FFCEFBC02
:1000F0009C9F40F2BAA56FA5F490055A2AF75C932D
:100100006B6CF9676DC11BFCE0E40D47FEF520E662
:10011000B500D0ED902E0300943577050080841E45
:10012000080000204E0A000000C80C333333330FA0
:10013000986E12831141EF8D2114893BE65516CF3D
:10014000FEE6DB18D1844B381BF77C1D901DA4BB49
:10015000E424203284725E228100C9F124ECA1E5FE
:100160003D276364696E6F70737578585B004465F2
:10017000627567696E672073746172742E2E2E2EFD
:100180002E2E342E2E2E0000000000240027002AE0
:100190000000000000250028002B000000000800DF
:1001A000020100000304070000000000000000003E
:1001B00000000023002600290004040404040404B1
:1001C0000402020202020203030303030301020406
:1001D00008102040800102040810200102040810C9
:1001E0002000201A11241FBECFEFD8E0DEBFCDBF04
:1001F00026E0A4E3B3E001C01D92A03DB207E1F701
:1002000013E0A0E0B1E0E4E6F1E502C005900D9254
:10021000A433B107D9F710E0C2EFD0E004C02197B2
:10022000FE010E946320C13FD107C9F70E946A12F4
:100230000C94B0280C940000CF92DF92EF92FF92C2
:100240000F931F93CF93DF936C017A018B01C0E072
:10025000D0E0CE15DF0581F0D8016D918D01D6017A
:10026000ED91FC910190F081E02DC6010995892B5B
:1002700011F02196EECF7E01C701DF91CF911F9142
:100280000F91FF90EF90DF90CF900895FC01538D78
:10029000448D252F30E0842F90E0821B930B541760
:1002A00010F0CF96089501970895FC01918D828DED
:1002B000981761F0828DDF01A80FB11D5D968C91BA
:1002C000928D9F5F9F73928F90E008958FEF9FEFC5
:1002D0000895FC01918D828D981731F0828DE80F81
:1002E000F11D858D90E008958FEF9FEF0895FC013B
:1002F000918D228D892F90E0805C9F4F821B910908
:100300008F739927089582E294E00E94770121E09B
:10031000892B09F420E0822F0895FC01848DDF01F0
:10032000A80FB11DA35ABF4F2C91848D90E0019668
:100330008F739927848FA689B7892C93A089B18957
:100340008C91837080648C93938D848D981306C0F8
:100350000288F389E02D80818F7D80830895EF925C
:10036000FF920F931F93CF93DF93EC0181E0888F6F
:100370009B8D8C8D981305C0E889F989808185FD56
:1003800026C0F62E0B8D10E00F5F1F4F0F73112745
:10039000E02E8C8DE8120CC00FB607FCFACFE8896E
:1003A000F989808185FFF5CFCE010E948D01F1CFC3
:1003B0008B8DFE01E80FF11DE35AFF4FF0829FB7CE
:1003C000F8940B8FEA89FB89808180620AC09FB70D
:1003D000F894EE89FF896083E889F98980818370C8
:1003E000806480839FBF81E090E0DF91CF911F9177
:1003F0000F91FF90EF900895CF93DF93EC01888DDC
:100400008823C9F0EA89FB89808185FD05C0A88918
:10041000B9898C9186FD0FC00FB607FCF5CF80819E
:1004200085FFF2CFA889B9898C9185FFEDCFCE01E8
:100430000E948D01E7CFDF91CF91089580E090E099
:10044000892B29F00E94830181110C9400000895EA
:1004500085ED8093BC008091BC0084FDFCCF1092A0
:100460001C04089540916B03262F30E0240F311DAA
:1004700021323105DCF420911C042430C9F4FC0144
:1004800080E090E0861758F430916B032191DC01F5
:10049000A55BBC4FA30FB11D2C930196F3CF8091A8
:1004A0006B03680F60936B0380E0089581E008950B
:1004B00082E00895089508950895E09120048091C0
:1004C0001F04E81730F4F0E0EA56FC4F808190E01A
:1004D00008958FEF9FEF08959091200480911F045D
:1004E000981750F4E92FF0E0EA56FC4F208130E0F5
:1004F0009F5F9093200402C02FEF3FEFC901089542
:1005000080911F0490E020912004821B910908959E
:10051000CF92DF92EF92FF920F931F93CF93DF93CF
:100520007C01CB018A012091F403222389F0EB01A5
:100530006B01C40ED51ECC15DD0569F06991D7019C
:10054000ED91FC910190F081E02DC7010995F3CF69
:10055000642F0E943202C801DF91CF911F910F9149
:10056000FF90EF90DF90CF900895CF93DF931F928D
:10057000CDB7DEB769832091F4032223D1F0209117
:100580001D04203240F021E030E0FC01338322835F
:1005900080E090E015C080911E04E82FF0E0EB5061
:1005A000FC4F998190838F5F80931E0480931D047C
:1005B00005C061E0CE0101960E94320281E090E028
:1005C0000F90DF91CF910895089580E090E0089515
:1005D0008F3F19F0813039F0089581E09091110139
:1005E000913031F404C081E090911101911180E0CB
:1005F000809311010895089508958F3F19F0813077
:10060000D1F008958091340390E0019726E1289F6E
:10061000F001299FF00D1124EA51FA4F2581211193
:10062000215036E1389FF001399FF00D1124EA5135
:10063000FA4F258308958091340390E0019726E1D5
:10064000289FF001299FF00D1124EA51FA4F85816E
:100650009081891710F0958308958F5F85830895A1
:10066000DC011C96ED91FC911D97208116968C91D2
:10067000922F982381E009F480E00895FC01A08581
:10068000B18586819C91611109C0892B8C93A089C9
:10069000B1899C9186818095892308C080958923A2
:1006A0008C93A089B1899C918681892B8C93089524
:1006B000FC01A285B38587819C9161110CC0892BB7
:1006C0008C93A289B3899C918781809589238C938F
:1006D00020E63AEE14C0809589238C93A289B389D1
:1006E0009C918781892B8C93A685B785978120E67D
:1006F0003AEE8C91892319F42115310529F481E012
:10070000232B29F480E0089521503109F2CF089578
:1007100080E0089580E0089580E0089580E00895E5
:1007200084E00895CF93DF931F92CDB7DEB749835E
:10073000DC01ED91FC910088F189E02D21E0AE0112
:100740004F5F5F4F09950F90DF91CF9108950F9301
:10075000CF93DF931F92CDB7DEB72983DC01ED91F4
:10076000FC910484F585E02D01E09E012F5F3F4F51
:1007700009950F90DF91CF910F9108950F931F93DB
:10078000CF93DF93EC01062F142FE881F9810280CB
:10079000F381E02D09958DA3FE01E00FF11D968DEB
:1007A000292F20952823122B282F292B21234789F5
:1007B0006E89CE010296DF91CF911F910F910C941B
:1007C000A703CF93DF931F92CDB7DEB71982DC0169
:1007D000ED91FC910684F785E02D21E0AE014F5F9D
:1007E0005F4F099589810F90DF91CF9108950F9305
:1007F000CF93DF931F92CDB7DEB71982DC01ED9165
:10080000FC910284F385E02D01E09E012F5F3F4FB4
:10081000099589810F90DF91CF910F9108950E94E2
:10082000A42281E08093F4036093150410921E04C7
:1008300010921D040E940E0A91E0811190E0892F10
:100840000895CA0131E03093F403609315041092C7
:100850001E0410921D04422F50E0BC018FEB94E067
:100860000E94880281E00E940E0A91E0811190E0CE
:10087000892F08950F93CF93DF93E90181E080934F
:10088000F4036093150410921E0410921D04642F4B
:100890008FEB94E00E94B502402F50E0BE018FEB39
:1008A00094E00E94880281E00E940E0A91E081118A
:1008B00090E0892FDF91CF910F9108950F931F93AF
:1008C000CF93DF93EC01162F61E070E080E090E0C1
:1008D0000E94620CCE01810F911D8C01FC014789A1
:1008E0006E89CE0102960E94F703F801968D892346
:1008F000DF91CF911F910F910895FF920F931F9356
:10090000CF93DF939091CD04890F8093CD048130F4
:1009100061F580E090E00E949F1F8F3629F06FE61E
:1009200080E090E00E94A71F81E090E00E949F1F5E
:10093000882329F060E081E090E00E94A71F06EE86
:1009400015E0C1E0D0E0F801F580CE010E949F1FC4
:10095000F81621F06F2DCE010E94A71F21960A5E86
:100960001F4FC630D10579F702C01092CD04DF9138
:10097000CF911F910F91FF900895FF920F931F93B6
:10098000CF93DF93862FF42EC52FD22F622F2132E3
:1009900008F060E20E94060B1092200480931F046E
:1009A0008823D1F00F2D1C2FC0E090911F0480915F
:1009B0002004981771F0DC1311C090911F048091EE
:1009C0002004981729F08FEB94E00E946C02F5CF79
:1009D000CD2F81E0DC1759F080E009C08FEB94E067
:1009E0000E946C02F80181938F01CF5FDECFDF910F
:1009F000CF911F910F91FF900895EF92FF920F9367
:100A00001F93CF93DF93C62F122FD32F81E08093B4
:100A1000F4036093150410921E0410921D04642FB9
:100A20008FEB94E00E94B50280E00E940E0A8111D3
:100A300027C0602F013208F060E28C2F0E94060B65
:100A40001092200480931F048823D1F0E12EFD2E04
:100A5000C0E090911F0480912004981771F0C0139A
:100A600011C090911F0480912004981729F08FEBFA
:100A700094E00E946C02F5CFC02F81E00C1759F072
:100A800080E009C08FEB94E00E946C02F701819333
:100A90007F01CF5FDECFDF91CF911F910F91FF904C
:100AA000EF900895A8EEB3E09A01AB010E94B51F44
:100AB0009B01AC0160E074E284EF90E00E9426208C
:100AC000DA01C9014097A109B109B695A795979593
:100AD00087958093B8000C94950B0F931F93CF9339
:100AE000DF93EC018C010E5F1F4F44E650E060E0A5
:100AF00070E0C8010E94520540E06E89C8010E9462
:100B0000F7038DA387FF07C0282F2F7740E06E895A
:100B1000C8010E94A70342E06E89C8010E94F70342
:100B20008DA386FF07C0282F2F7B42E06E89C80166
:100B30000E94A70347E06E89C8010E94F7038DA3B6
:100B4000982F937011F484FD0CC08C7E282F2061A7
:100B500047E06E89C801DF91CF911F910F910C94EE
:100B6000A703DF91CF911F910F9108956115710532
:100B700079F0FB0101900020E9F73197AF01461BA6
:100B8000570BDC01ED91FC910280F381E02D09947B
:100B900080E090E008951F920F920FB60F921124FB
:100BA0002F933F934F935F936F937F938F939F9375
:100BB000AF93BF93EF93FF9382E294E00E948D0185
:100BC000FF91EF91BF91AF919F918F917F916F9125
:100BD0005F914F913F912F910F900FBE0F901F90FB
:100BE00018951F920F920FB60F9211242F938F9387
:100BF0009F93EF93FF93E0913204F091330480814F
:100C0000E0913804F091390482FD12C09081809106
:100C10003B048F5F8F7320913C04821751F0E09169
:100C20003B04F0E0EE5DFB4F958F80933B0401C0E9
:100C30008081FF91EF919F918F912F910F900FBE27
:100C40000F901F9018951F920F920FB60F921124BC
:100C50008F9380E28093800010926F001092CF03F8
:100C60008F910F900FBE0F901F901895FC0124815B
:100C700031E03093F4032093150410921E04109277
:100C80001D048485682B8FEB94E00E94B50281E0FF
:100C90000C940E0A0F931F93CF938C01C62F0E94C2
:100CA00036066C2F6460C8010E9436066C2F6B7F7D
:100CB000C8010E94360683EC90E00197F1F7CF91CE
:100CC0001F910F9108950F931F93CF93DF938C0182
:100CD000C62FD42F607F642B0E944A0680E1C89FF4
:100CE000B00111246D2BC801DF91CF911F910F919D
:100CF0000C944A0641E00E94630681E090E008956A
:100D00001F920F920FB60F9211242F933F934F9380
:100D10005F936F937F938F939F93AF93BF93EF9363
:100D2000FF938091B900887F803609F49CC068F5F4
:100D3000883209F45BC090F4803109F454C038F46F
:100D4000882309F4F6C0883009F44DC0F6C0883114
:100D500009F44CC0803209F45DC0EFC0803409F45E
:100D600068C048F4803309F455C0883309F0E5C001
:100D70008093F303D8C0803509F44FC0883509F457
:100D80005DC0883409F0D9C0D6C0883909F4C7C01D
:100D9000A8F4883709F467C038F4883609F463C0CA
:100DA000803709F460C0C9C0883809F4B8C08039F8
:100DB00009F45FC0803809F0C0C05BC0803B09F413
:100DC00086C038F4803A09F466C0883A09F47FC0D6
:100DD000B4C0803C09F4A7C0883C09F4A4C0883B97
:100DE00009F48AC0AAC08091D00310C09091F20388
:100DF0008091F103981770F5E091F20381E08E0F76
:100E00008093F203F0E0EF52FC4F80818093BB00AF
:100E100085EC86C08093F3038EC0E091F20381E0FD
:100E20008E0F8093F2038091BB00F0E0EF52FC4FF5
:100E300080839091F2038091F1036EC0E091F20300
:100E400081E08E0F8093F2038091BB00F0E0EF52BF
:100E5000FC4F808380911B0481116DC081E08093E1
:100E60001A0484EA61C083E080931C0410928D030D
:100E7000CFCF80918D03803208F051C0E0918D0377
:100E800081E08E0F80938D038091BB00F0E0E359E9
:100E9000FC4F8083BDCF85EC8093BC0010921C0476
:100EA00080918D03803230F4E0918D03F0E0E359BE
:100EB000FC4F108260918D0370E0E0911604F09178
:100EC00017048DE693E0099510928D0336C084E0F7
:100ED00080931C0410926C0310926B03E091180431
:100EE000F0911904099580916B03811105C081E08F
:100EF00080936B0310924B03E0916C0381E08E0FA3
:100F000080936C03F0E0E55BFC4F80818093BB0035
:100F100090916C0380916B03981708F479CF85E862
:100F20008093BC000AC085EC8093BC0010921C0426
:100F300004C01092F3030E942802FF91EF91BF9129
:100F4000AF919F918F917F916F915F914F913F9161
:100F50002F910F900FBE0F901F901895CF9380E0A8
:100F60000E946A0AE0913403CCE1CE9FF001112483
:100F7000E253FB4F6589768984E596E00E94B605C9
:100F800081E00E946A0AE0913403CE9FF0011124AF
:100F9000E253FB4F6789708D84E596E0CF910C9406
:100FA000B60590911101913009F046C09091CC04A2
:100FB0008F3F19F0813029F009C081E0913021F490
:100FC00002C081E0911180E08093CC048091CC0438
:100FD00081110DC081E1EEE3F2E0A0E0B1E001900B
:100FE0000D928A95E1F7109210010E94AE07E6EB90
:100FF000F3E08EEC93E010821182128233968E170A
:101000009F07C9F70E94980A0E94BE1064E372E02D
:1010100082E294E00E94B6056091CC0470E080E02A
:1010200090E04AE00E94C4100E94BE106CED75E092
:1010300080E090E00C94620C0895CF92DF92EF92E2
:10104000FF920F931F93CF93DF93CDB7DEB76397D4
:101050000FB6F894DEBF0FBECDBF7C018E010F5FCF
:101060001F4F80E1D8011D928A95E9F7D701599663
:10107000ED91FC915A9780811F928F931F928EE37E
:101080008F938FE492E09F938F936E01B1E1CB0E2B
:10109000D11CDF92CF920E94D522B601C8010E94D6
:1010A000A922F80101900020E9F73197E01BF10B2C
:1010B0000FB6F894DEBF0FBECDBF709778F4F8017D
:1010C00001900020E9F73197E01BF10B709730F4A5
:1010D00064E371E0C8010E94A922F1CFB801C70101
:1010E00004960E94B42263960FB6F894DEBF0FBE3A
:1010F000CDBFDF91CF911F910F91FF90EF90DF90C7
:10110000CF9008954F925F926F927F92AF92BF926D
:10111000CF92DF92EF92FF920F931F93CF93DF93C3
:10112000CDB7DEB768970FB6F894DEBF0FBECDBF60
:101130008C016B017A0188E1E7E3F1E0DE011196B1
:1011400001900D928A95E1F7FA0131972DE631E091
:10115000DF010E9448209F01F7FF02C02D5F3F4F33
:1011600029015594479455944794052C000C660822
:101170007708460E571E681E791E34E6A32EB12C42
:10118000CF01B5010E941220CB01770FAA0BBB0B38
:10119000481A590A6A0A7B0A20E931E0CF01B901ED
:1011A0000E941220CB01770FAA0BBB0B480E591ED1
:1011B0006A1E7B1EF6013197EE0FFF1F81E090E063
:1011C0008C0F9D1FE80FF91F80819181092E000C63
:1011D000AA0BBB0B480E591E6A1E7B1EC801110FBD
:1011E000AA0BBB0B480E591E6A1E7B1E91E0491AC2
:1011F000510861087108C70183709927892B71F420
:10120000C701B5010E941220892B51F4C701B90111
:101210000E9412209C0191E0232B19F090E001C064
:1012200091E021E030E083E0C816D10414F420E01E
:1012300030E0929FB001939F700D1124CB01770F86
:10124000AA0BBB0BBC01CD01640D751D861D971D3E
:1012500068960FB6F894DEBF0FBECDBFDF91CF9179
:101260001F910F91FF90EF90DF90CF90BF90AF90C4
:101270007F906F905F904F9008953FB7F894809162
:10128000920390919303A0919403B091950326B596
:10129000A89B05C02F3F19F00196A11DB11D3FBFAE
:1012A000BA2FA92F982F8827820F911DA11DB11D3C
:1012B000BC01CD0142E0660F771F881F991F4A9538
:1012C000D1F70895CF92DF92EF92FF920F931F9381
:1012D000CF93DF93CDB7DEB72C970FB6F894DEBF70
:1012E0000FBECDBF8C01FC018081823239F0883283
:1012F00029F0803121F4FF24F39401C0F12C0E94E5
:10130000E911C8010E94D3118EEB0E94A9118E0130
:101310000F5F1F4F6E01FAE0CF0ED11C0E946311C8
:10132000F80181938F01CE16DF06C1F76A8170E064
:10133000762F662789818B01080F111DFF2099F0F8
:1013400083E0000F111F8A95E1F788858031B9F499
:101350002F818CE090E0821B9109B801607F8C01A5
:10136000060F171F0CC08D81807611F4087F07C00F
:10137000803211F40C7F03C0803409F40E7F609139
:10138000A6067091A7068091A8069091A9060E94D2
:101390007D1E6B017C01B801110F880B990B0E9417
:1013A0007F1E20E030E040E85DE30E94DE1E9B01EE
:1013B000AC01C701B6010E94DE1E0E944821072E23
:1013C000000C880B990B0E947F1E2C960FB6F89488
:1013D000DEBF0FBECDBFDF91CF911F910F91FF9068
:1013E000EF90DF90CF9008950F931F93FC01049628
:1013F000908F878B8091CB048F5F8093CB04738316
:101400006283568B458B328F218F1183008381E05D
:10141000838FCF011F910F910C941D08282F3091BD
:101420001D04313208F04AC080911C048111FCCFA8
:101430009091150442E040931C0420931B042FEF6D
:101440002093F3031092F2033093F103E5EFF3E0FE
:10145000A1EDB3E020E0321721F041914D932F5FD1
:10146000FACF1092D0032091D003990F922B909332
:10147000D00390911A04913061F410921A04909163
:10148000D0039093BB009091BC0093FDF8CF95ECF6
:1014900001C095EE9093BC0090911C049230E1F352
:1014A0009091F3039F3F79F08091F303803241F0F4
:1014B0008091F303803331F084E005C081E003C004
:1014C00082E001C083E010921E0410921D0410926D
:1014D000F4030895CF93DF93CDB7DEB728970FB607
:1014E000F894DEBF0FBECDBF98E0EFE4F1E0DE017F
:1014F000119601900D929A95E1F790915C069817DC
:1015000010F48FEF890FFE013196E80FF11DE80FFF
:10151000F11D6081606840E084E596E028960FB692
:10152000F894DEBF0FBECDBFDF91CF910C94630660
:101530008091CF0381112DC090E290938000909113
:101540002104992329F010922104E6EBF3E003C073
:101550002D9A2D98FACF90819EBD0DB407FEFDCF38
:1015600091819EBD0DB407FEFDCF92819EBD0DB44D
:1015700007FEFDCF339693E0EE3CF90761F791E06B
:101580009093CF0320EA20938000B09A90936F004D
:10159000089581E008959FE0981B892F93E0899F2B
:1015A000F0011124F695E795EA54FC4F80FF05C041
:1015B0008081807F872B80830CC0CB0124E09695AF
:1015C00087952A95E1F7808381818F706295607F8E
:1015D000682B618308950F931F93CF93DF938C0142
:1015E000C0E0D0E0F801EC0FFD1F6491662341F0EC
:1015F00082E294E00E94AF01892B11F02196F2CF94
:10160000CE01DF91CF911F910F91089590911C040D
:101610009111FCCF91E090931C0490931B042FEF49
:101620002093F3031092F203260F2093F10390937B
:10163000D0039091D003880F892B8093D0038091A1
:101640001A04813061F410921A048091D0038093BF
:10165000BB008091BC0083FDF8CF85EC01C085EE16
:101660008093BC0080911C048130E1F38091F203EF
:10167000861710F46091F203A1EDB3E0E6E9F3E020
:1016800080E0861721F09D9191938F5FFACF0895A6
:1016900090E0FC01E556FE4F2491FC01E353FE4F20
:1016A0003491FC01E754FE4FE491EE2309F43CC071
:1016B000222339F1233091F038F42130A9F022307F
:1016C00001F584B58F7D12C0273091F02830A1F04C
:1016D0002430B9F4809180008F7D03C08091800018
:1016E0008F77809380000DC084B58F7784BD09C04B
:1016F0008091B0008F7703C08091B0008F7D809380
:10170000B000F0E0EE0FFF1FEF56FE4FA591B49131
:101710009FB7F894611104C08C913095382302C0B2
:10172000EC913E2B3C939FBF0895109220041092A1
:101730001F0410921E0410921D0410921C0481E0DC
:1017400080931B0410921A0461E082E10E94480B0E
:1017500061E083E10E94480BE9EBF0E080818E7F3D
:10176000808380818D7F808388E48093B80085E4C6
:101770008093BC008AE592E090931904809318044A
:101780008BE592E090931704809316040895CF930D
:10179000DF9390E0FC01E353FE4F2491FC01E754FA
:1017A000FE4F8491882361F190E0880F991FFC011E
:1017B000E957FE4FC591D491FC01EF56FE4FA5911C
:1017C000B491611109C09FB7F89488812095822354
:1017D0008883EC912E230BC0623061F49FB7F8949C
:1017E0008881322F309583238883EC912E2B2C9384
:1017F0009FBF06C08FB7F894E8812E2B28838FBF38
:10180000DF91CF9108951F93CF93DF93182FEB01B2
:1018100061E00E94C70B209711F460E004C0CF3F45
:10182000D10539F461E0812FDF91CF911F910C94A4
:10183000480BE12FF0E0E556FE4FE491E330F9F07C
:1018400048F4E130B9F0E230A1F584B5806284BD9E
:10185000C8BD34C0E730E9F0E83019F1E43049F5AB
:1018600080918000806280938000D0938B00C09331
:101870008A0024C084B5806884BDC7BD1FC0809124
:101880008000806880938000D0938900C093880096
:1018900015C08091B00080688093B000C093B30001
:1018A0000DC08091B00080628093B000C093B400FE
:1018B00005C0C038D1050CF0B5CFAFCFDF91CF91C7
:1018C0001F9108958F929F92AF92BF92CF92DF9215
:1018D000EF92FF926B017C010E943D094B015C017C
:1018E000C114D104E104F104F1F00E943D09DC01CE
:1018F000CB0188199909AA09BB09883E9340A10523
:10190000B10570F321E0C21AD108E108F10888EEB0
:10191000880E83E0981EA11CB11CC114D104E104FF
:10192000F10419F7DDCFFF90EF90DF90CF90BF90DB
:10193000AF909F908F9008952FB7F89460918E0389
:1019400070918F0380919003909191032FBF089520
:10195000AF92BF92CF92DF92EF92FF920F931F93BD
:10196000CF93DF93C82FD62F042FB22EA0908806D6
:101970000E949C0CC0908906D0908A06E0908B064D
:10198000F0908C06A70196010E942620F694E79419
:10199000D794C7946C157D058E059F0508F445C046
:1019A00011E0AB1010E0D23009F442C028F4DD237E
:1019B00051F0D13011F115C1D33009F467C0D430E2
:1019C00009F4B1C00EC1E0917906F0917A06E00FFA
:1019D000F11DAB1429F0C73008F0C6E0C05D01C0AE
:1019E000C0E2C083FEC0D33008F04CC0DD2309F450
:1019F000EEC0D13009F0F5C010E0C43608F0C3E6FF
:101A0000202F30E0E0917906F0917A06E20FF31F83
:101A1000111106C08C2F6AE00E940620805D01C073
:101A200080E280832F5F3F4FC1C0D230E1F610E0EB
:101A3000C73008F0C6E0202F30E0E0917906F09141
:101A40007A06E20FF31F111108C0A0917D06B09134
:101A50007E06AC0FB11D8C9101C080E280832F5FA8
:101A60003F4FE0917906F0917A06E20FF31F1111D2
:101A700053C0A0917D06B0917E06AC0FB11D1196AA
:101A80008C914BC0D33009F04AC010E0C73308F046
:101A9000C6E3E02FF0E0A0917906B0917A069D01AF
:101AA0002E0F3F1F111109C080917F069091800673
:101AB0008C0F911DDC018C9101C080E2D9018C93C7
:101AC000A0917906B0917A06CF0101969D01280F69
:101AD000391F11110AC080917F06909180068C0FEA
:101AE000911DDC0111968C9101C080E2D9018C938B
:101AF0009F012E5F3F4FE0917906F0917A06E20F49
:101B0000F31F111109C0A0917F06B0918006AC0FA0
:101B1000B11D12968C9101C080E2808362C0D430E6
:101B200009F05FC010E0C43608F0C3E6202F30E0B3
:101B3000E0917906F0917A06E20FF31F11110AC0C5
:101B400080918D0690E001976AE070E00E9412207B
:101B5000605D01C060E26083E0917906F0917A06F1
:101B6000C9010196E80FF91F11110AC080918D0675
:101B700090E001976AE070E00E941220805D01C051
:101B800080E28083E0917906F0917A06C90102969D
:101B9000E80FF91F111106C08C2F6AE00E94062081
:101BA000805D01C080E280832D5F3F4FE091790628
:101BB000F0917A06E20FF31F111106C08C2F6AE034
:101BC0000E940620905D01C090E290830AC0C73059
:101BD00008F0C6E0E0917906F0917A06E00FF11D79
:101BE000FDCEDF91CF911F910F91FF90EF90DF908D
:101BF000CF90BF90AF900895CF93DF93CEE6D6E01D
:101C000089859A85DC01ED91FC910280F381E02DBC
:101C100060E00995982F9695969596959E71292F37
:101C2000220F220F920F8F70890F8B8B88838985EB
:101C30009A85DC01ED91FC910280F381E02D61E059
:101C40000995982F9695969596959E71292F220F16
:101C5000220F920F8F70890F8C8B898389859A85CB
:101C6000DC01ED91FC910280F381E02D62E00995A9
:101C7000982F9695969596959E71292F220F220F53
:101C8000920F8F70890F8D8B8B8389859A85DC01EC
:101C9000ED91FC910280F381E02D63E00995982F8E
:101CA0009695969596959E71292F220F220F920F49
:101CB0008F70890F8E8B8D8389859A85DC01ED91DC
:101CC000FC910280F381E02D64E00995982F9695B0
:101CD000969596959E71292F220F220F920F8F7045
:101CE000890F8F8B8F8389859A85DC01ED91FC911B
:101CF0000280F381E02D65E00995982F96959695E1
:101D000096959E71292F220F220F920F8F70890FA7
:101D1000888F888789859A85DC01ED91FC91028006
:101D2000F381E02D66E00995982F96959695969506
:101D30009E71292F220F220F920F8F708150890FD1
:101D4000898F8E830E949C0C6AA37BA38CA39DA386
:101D5000DF91CF9108954F925F926F927F928F9211
:101D60009F92AF92BF92CF92DF92FF920F931F93F9
:101D7000CF93DF938C018090900690909106A09075
:101D80009206B09093060E949C0C681579058A050E
:101D90009B0540F4109290061092910610929206C4
:101DA0001092930620918E0630918F0621153105F1
:101DB00019F40E94FC0DB0C080919006909191069C
:101DC000A0919206B09193060097A105B10589F301
:101DD0004C015D01820E931EA11CB11C0E949C0C43
:101DE000681579058A059B0520F70E949C0C809058
:101DF000900690909106A0909206B0909306681974
:101E000079098A099B0928EE33E040E050E00E94FE
:101E10002620C0918506D0918606C23009F0A0C167
:101E20008D2F90E083709927892B09F493C17CE171
:101E3000F72E8091810629013A01480E511C611C40
:101E4000711CC301B2012CE3822E912CA12CB12C68
:101E5000A50194010E94262060936E06809182065F
:101E600029013A01480E511C611C711CC301B201C9
:101E7000A50194010E94262060936F06809183063D
:101E800059016A01A80EB11CC11CD11CC601B501C3
:101E900028E130E040E050E00E9426206093710687
:101EA00080918706820F873008F057C180937406AF
:101EB0008091840629013A01480E511C611C711C55
:101EC000C301B2012F2D30E02F5F3F4F032E000CD6
:101ED000440B550B0E942620620F60937306CA01C3
:101EE000B9016C0F711D811D911D2DE030E040E0A6
:101EF00050E00E942620620F60937506CA01B90166
:101F00006D0F711D811D911D24E630E040E050E011
:101F10000E9426206093760620917106822F6CE045
:101F20000E940620911101C09CE09093700681E010
:101F30002C3008F480E080937206F80101900020B4
:101F4000E9F73197CF01801B910BC1E0C80FA09139
:101F50007B06B0917C0630E0432F50E048175907CC
:101F600038F5FD0101900020E9F731975F01AA1AC9
:101F7000BB0A20E0400F511F622F70E06A157B05FD
:101F8000A8F46A0F7B1FFA01D081FB016081D61390
:101F90000BC0222349F02A3010F4CF5F05C02C304B
:101FA00010F4CE5F01C0CD5F2F5FE6CF3F5FD4CF8F
:101FB0008091790690917A060E941B228C2F90E0E6
:101FC0000E94832190937A0680937906C0E0D0E046
:101FD0008D2F90E0F80101900020E9F73197E01B88
:101FE000F10B8E179F0708F09AC0F801E80FF91F50
:101FF0008081E0917B06F0917C069081891308C076
:1020000027E04C2F60E0809174060E94A80C84C0E9
:102010009181891307C08091720628E04C2F62E0FD
:10202000880F0AC0928189130BC080917206880FB5
:1020300028E04C2F62E08C5F0E94A80CCE5F6DC040
:102040009381891306C024E04C2F61E080917306D0
:10205000F3CF9481891306C023E04C2F61E0809177
:102060007006EACF9581891306C023E04C2F61E00A
:1020700080917106E1CF9681891306C022E04C2F32
:1020800061E080916F06D8CF9781891306C025E063
:102090004C2F61E080917506CFCF9085891306C0E3
:1020A00021E04C2F61E080916E06C6CF91858913A7
:1020B00006C026E04C2F61E080917606BDCF928568
:1020C000891308C08091750690E00696982F990FA5
:1020D00025E008C0938589130CC080917406982F61
:1020E000990F27E04C2F63E0890F0E94A80CCD5F69
:1020F00014C09485891309C026E04C2F64E08091B8
:1021000076060E94A80CCC5F08C0E0917906F09199
:102110007A06EC0FF11D8083CF5FDF5F59CFE0912E
:102120007906F0917A06EC0FF11D10828091790604
:1021300090917A06DF91CF911F910F91FF90DF90E0
:10214000CF90BF90AF909F908F907F906F905F9057
:102150004F9008956DE1F62E6CCE10927406A8CEC5
:1021600081E090E0C83010F480E090E08C0F911D89
:10217000817099279EE1F92EF80E5BCE61E373E042
:1021800082E294E00C94B6058F929F92AF92BF9238
:102190000F931F93CF93DF93CDB7DEB7A1970FB601
:1021A000F894DEBF0FBECDBF19A2423008F44AE05A
:1021B0008E010F5D1F4F842E912CA12CB12CA501F7
:1021C00094010E942620E62FB901CA01015011098D
:1021D000EA3014F4E05D01C0E95CD801EC93232BF4
:1021E000242B252B61F7B80182E294E00E94B6050A
:1021F000A1960FB6F894DEBF0FBECDBFDF91CF9191
:102200001F910F91BF90AF909F908F900895CF92A4
:10221000DF92EF92FF92CF93DF936B017C016DE22F
:1022200082E294E00E94AF01EC0166277727CB01A0
:102230006C197D098E099F094AE00E94C4108C0F19
:102240009D1FDF91CF91FF90EF90DF90CF90089589
:10225000CF93DF93BC01990F880B990B97FF03C0B5
:102260000E94071103C04AE00E94C410EC010E94C2
:10227000BE108C0F9D1FDF91CF9108959091BD06E8
:10228000E091BE06F091BF06F8948181892B81838D
:102290002281892F809528232283A7E0B0E011971F
:1022A000F1F7218182238183A3E2B0E01197F1F756
:1022B00080817894EFECF0E03197F1F7982381E09A
:1022C00009F480E008950F931F93CF93DF9308E004
:1022D00010E0C0E0D1E00E943E118111CD2BDD0F56
:1022E00001501109C1F78C2FDF91CF911F910F91F0
:1022F00008959091BD06E091BE06F091BF06292F8A
:10230000209580FF12C0F89482818223828381818C
:10231000892B8183A3E2B0E01197F1F78281982B9A
:102320009283789487ED90E011C0F89482818223A3
:1023300082838181892B8183AFEFB0E01197F1F720
:102340008281982B928378948FE090E00197F1F747
:1023500008950F931F93CF93DF93082FC8E0D0E029
:1023600011E081E0902F912309F480E00E9479111F
:10237000110F2197B1F7F894E091BE06F091BF06D6
:1023800091818091BD06809598239183E091BE064E
:10239000F091BF069281892382837894DF91CF9157
:1023A0001F910F9108950F931F93CF93DF938C018B
:1023B00085E50E94A911E801085F1F4F89910E94DD
:1023C000A911C017D107D1F7DF91CF911F910F91BC
:1023D00008952091BD06E091BE06F091BF06F894E5
:1023E0008181922F90958923818378948DE743E0B2
:1023F00050E0815021F1DA011197F1F73081322359
:10240000C1F3F8948281892382838181822B818325
:102410007894ABE7B7E01197F1F7F89481819823AE
:10242000918383E191E00197F1F78081282381E096
:1024300009F080E07894E3E6F6E03197F1F708954B
:102440001F920F920FB60F9211242F933F938F93E9
:102450009F93AF93BF9380918E0390918F03A09130
:102460009003B09191033091CB0623E0230F2D37D9
:1024700020F40196A11DB11D05C026E8230F029688
:10248000A11DB11D2093CB0680938E0390938F03E3
:10249000A0939003B0939103809192039091930342
:1024A000A0919403B09195030196A11DB11D809355
:1024B000920390939303A0939403B0939503BF91D9
:1024C000AF919F918F913F912F910F900FBE0F90E1
:1024D0001F901895CF93DF93CDB7DEB7EB970FB66C
:1024E000F894DEBF0FBECDBF789484B5826084BD02
:1024F00084B5816084BD85B5826085BD85B5816008
:1025000085BD80916E00816080936E001092810085
:102510008091810082608093810080918100816040
:102520008093810080918000816080938000809101
:10253000B10084608093B1008091B000816080938D
:10254000B00080917A00846080937A0080917A0054
:10255000826080937A0080917A00816080937A0013
:1025600080917A00806880937A001092C100E09197
:102570003204F091330482E08083E0912E04F091E4
:102580002F041082E0913004F091310480E18083C7
:1025900010923A04E0913604F091370486E080838B
:1025A000E0913404F0913504808180618083E09172
:1025B0003404F0913504808188608083E091340494
:1025C000F0913504808180688083E0913404F0913B
:1025D000350480818F7D80838EE691E00E94EB0A36
:1025E0000E94BE100E94BE100E94BE100E94950B59
:1025F0001092590680915F06823018F098E090930F
:10260000590680935C0662E370E080E090E00E94EF
:10261000620C6091600684E596E00E94360668EEE2
:1026200073E080E090E00E94620C60E384E596E055
:102630000E944A060BE416E4C8010197F1F760E333
:1026400084E596E00E944A06C8010197F1F760E32D
:1026500084E596E00E944A0683E592E00197F1F74F
:1026600060E284E596E00E944A0660915906606245
:1026700040E084E596E00E94630684E080935A0679
:1026800040E06CE084E596E00E94630640E061E093
:1026900084E596E00E9463068BE39FE10197F1F7E2
:1026A00080915D06882319F080E00E946A0A82E02A
:1026B00080935B0640E066E084E596E00E94630656
:1026C00040E062E084E596E00E9463068BE39FE1D0
:1026D0000197F1F788E08093600660E084E596E07A
:1026E0000E943606219A229A539A2A9A239A259A68
:1026F000229A2D9881E08DBD80E58CBD06EB13E01C
:102700004EECE42E43E0F42EF80110821182128286
:102710003396EE16FF06C9F70E94980A80E280936E
:10272000800010926F001092CF03299A299880930D
:10273000800080E18093810081E090E090938900A7
:102740008093880082E090E090938B0080938A00D1
:1027500080E090E2909387008093860083E28093EC
:10276000B00088E08093B1001092B40083E08093C1
:10277000B3008091B10081608093B10080918100AD
:102780008160809381000E94980AD8011C92119662
:102790001C92119712961C920D5F1F4FE016F106C6
:1027A000A1F78091770690917806DC01ED91FC917C
:1027B0000190F081E02D099583E393E00E94AB0E38
:1027C00080E69AEE90938F0680938E0685E2E0E88D
:1027D000F2E09E012F5F3F4F7901D90101900D92E8
:1027E0008A95E1F7CE01C2969F938F9302969F93AD
:1027F0008F9302969F938F938BEC91E09F938F938F
:1028000084ED91E09F938F930E94F7221E013EE298
:10281000230E311C3F922F92CE01C0969F938F932F
:102820006E0146E2C40ED11CDF92CF928DED91E095
:102830009F938F9386EE91E09F938F930E94F72250
:10284000B601C7010E94BB228E199F0963E070E0A8
:102850000E9412205B015FEFA51AB50A409176062F
:1028600050E04053584F6091750670E080917306B8
:1028700090E00E9482082B013C010EA51FA588A8AC
:1028800099A8A801B501C4010E9482080FB6F89466
:10289000DEBF0FBECDBF4616570668067906A8F103
:1028A000461657066806790609F0E3C0E0916F0600
:1028B0008EA99FA940E15EE0849F9001859F300D25
:1028C000949F300D11246CA97DA9FCE3F69FC001F3
:1028D000F79F900D1124280F391F8AA99BA9280F53
:1028E000391F60917006649FC001659F900D11248F
:1028F000BCE3EB9F800D911D112440916E06840F67
:10290000911D8217930708F0B4C0005D17404EA8D0
:102910005FA86CA87DA88AA99BA98D339105A8F40E
:10292000A0917706B09178066AE00E940620492FB0
:10293000E0E18E9F400D1124ED91FC9111970480F0
:10294000F581E02D60E0CD010995FDE36F1671047E
:10295000B0F4A0917706B0917806862D6AE00E94C7
:102960000620492F20E1829F400D1124ED91FC911A
:1029700011970480F581E02D61E0CD01099538E1E2
:1029800043165104B0F4A0917706B0917806842DD7
:102990006AE00E940620492F50E1859F400D1124D6
:1029A000ED91FC9111970480F581E02D62E0CD015D
:1029B0000995C40101974F97B0F4A0917706B091A3
:1029C0007806882D6AE00E940620492FE0E18E9F5C
:1029D000400D1124ED91FC9111970480F581E02DBB
:1029E00063E0CD010995C50101970C97B0F4A09162
:1029F0007706B09178068A2D6AE00E940620492F5A
:102A0000F0E18F9F400D1124ED91FC91119704800E
:102A1000F581E02D64E0CD01099504361105B0F48F
:102A2000A0917706B0917806802F6AE00E94062078
:102A3000492F20E1829F400D1124ED91FC911197C7
:102A40000480F581E02D65E0CD0109950E94FC0D23
:102A500020917106822F6CE00E940620911101C026
:102A60009CE09093700681E02C3008F480E0809325
:102A7000720661E085E00E94C70B61E086E00E947B
:102A8000C70B60E085E00E94480B60E086E00E9492
:102A9000480B8EE180939E0680939F06712C6624DE
:102AA00063945E0136E0A30EB11C8091CA068111C9
:102AB00004C00E94E911811120C01092C806109232
:102AC000CA061092C9068BEA96E09093BC068093E2
:102AD000BB060E94AE0780E090E00E949F1F8F36E9
:102AE00009F071C026EE822E25E0922E3AEEA32E3A
:102AF00034E0B32E00E010E052C080EF0E94A91134
:102B000001E0812C512C11E00E943E11982E0E9470
:102B10003E1141E0941203C08130C1F436C0282D2B
:102B200030E098121EC08091C806181738F4F901D9
:102B3000E354F94F8381802349F402C0811731F0B7
:102B4000912C193068F41093C9060AC0E82DF0E002
:102B5000E354F94F8381802B83839924939409C094
:102B6000512EF901E354F94F9381802F80958923E9
:102B70008383892D0E9479111F5F000F11F48394C4
:102B800001E057E0581508F0BFCF113408F495CF95
:102B90005092C8065110E0C36092CA06DDC30F5FB1
:102BA0001F4FC8010E949F1FD40115968C93C50129
:102BB0000E941D08B6E18B0E911CECE1AE0EB11C1B
:102BC0000530110561F767E06093F0058EE18093B1
:102BD000F1058093F2055CE05093F3051092F40543
:102BE0009AE09093F50530E13093F6051092F705E1
:102BF00021E02093F80545E14093F90574E17093D5
:102C0000FA058093FB0560930606109207068093F1
:102C100008065093090680930A0690930B0630939A
:102C20000C0610920D0620930E0640930F0680931B
:102C3000100655E05093110668E060931C06109250
:102C40001D06E2E3E0931E06EBE0E0931F06109200
:102C5000200690932106309322061092230620939B
:102C60002406E6E1E09325061092260650932706F7
:102C7000609332061092330690933406EDE0E093B1
:102C8000350610923606E3E2E093370630933806B5
:102C90001092390620933A0640933B0690933C06E7
:102CA00090933D06609348061092490670934A0639
:102CB0009EE090934B0610924C069DE290934D0639
:102CC00030934E0610924F062093500640935106C3
:102CD000809352065093530668EE73E080E090E0D4
:102CE0000E94620C80E1282E9CE1392E0E949C0CEF
:102CF0004B015C018091430390914403A0914503F3
:102D0000B0914603A5019401281B390B4A0B5B0BBC
:102D1000243631054105510508F441C010921101D6
:102D200006EE15E0F801A181B281258130E00E9414
:102D3000F71F208130E040E050E00E942620D801BB
:102D400017963C932E9316970A5E1F4FB6E00435F4
:102D50001B0741F76091EC057091ED0581E00E9441
:102D6000CB0A609102067091030682E00E94CB0AB2
:102D7000609118067091190683E00E94CB0A609159
:102D80002E0670912F0684E00E94CB0A60914406C3
:102D9000709145068BE00E94CB0A0E94980A8091B0
:102DA000370390913803A0913903B0913A03A501FC
:102DB0009401281B390B4A0B5B0BDA01C901883ED1
:102DC0009340A105B105B0F180923703909238038A
:102DD000A0923903B0923A0382EF91E00E94AB0EC9
:102DE000D701E22D1D92EA95E9F7BC01C7010E94C7
:102DF000A922F70101900020E9F73197EE19FF09A8
:102E0000709778F4F70101900020E9F73197EE19F7
:102E1000FF09709730F469E271E0C7010E94A922AE
:102E2000F1CFB7018091E3049091E4040E94B422B1
:102E30000E94AE0780913B0390913C03A0913D031B
:102E4000B0913E03A5019401281B390B4A0B5B0B83
:102E5000DA01C90180319742A105B10508F4E5C046
:102E60008091AA0681110EC00E94E9118CEC0E948B
:102E7000A91184E40E94A9118091AA068F5F809312
:102E8000AA06D3C00E946311882309F4CEC08091A2
:102E9000BB069091BC060E9462092B013C01609127
:102EA000A6067091A7068091A8069091A9060E9497
:102EB0007D1E9B01AC01C301B2010E94D62060932C
:102EC0009606709397068093980690939906809142
:102ED000BB069091BC0608960E9462092B013C013A
:102EE0006091A6067091A7068091A8069091A90608
:102EF0000E947D1E9B01AC01C301B2010E94D6203D
:102F000068AF79AF8AAF9BAF60939A0670939B06C8
:102F100080939C0690939D0640909606509097064D
:102F2000609098067090990660919E0670E080E02F
:102F300090E00E947F1E9B01AC01C301B2010E9480
:102F40007E2190919406990F18160CF4916090933D
:102F5000940660919F0670E080E090E00E947F1EE2
:102F60009B01AC0168AD79AD8AAD9BAD0E947E211D
:102F700090919506990F18160CF491609093950610
:102F80001092AA0680923B0390923C03A0923D03CC
:102F9000B0923E03D701E22D1D92EA95E9F7860132
:102FA00021E044E0C301B2010E94221C6CEF71E0F9
:102FB000C7010E94A922B601C7010E94A9226091FF
:102FC0009A0670919B0680919C0690919D0621E047
:102FD00044E00E94221C60E072E0C7010E94A92226
:102FE000B601C7010E94A922F70101900020E9F76C
:102FF0003197EE19FF09709778F4F70101900020DE
:10300000E9F73197EE19FF09709730F469E271E042
:10301000C7010E94A922F1CFB7018091E5049091E8
:10302000E6040E94B4220E94AE07809194068F3F6E
:1030300059F560919E0670E080E090E00E947F1E4E
:103040009B01AC016091960670919706809198065D
:10305000909199060E9469202B013C016091A20683
:1030600070E080E090E00E947F1E9B01AC01C301F4
:10307000B2010E94DE1E0E944F216093A30670E001
:1030800085E00E94030C02C01092A3068091950671
:103090008F3F59F560919F0670E080E090E00E94BC
:1030A0007F1E9B01AC0160919A0670919B068091F6
:1030B0009C0690919D060E9469202B013C01609125
:1030C000A20670E080E090E00E947F1E9B01AC01B0
:1030D000C301B2010E94DE1E0E944F216093A4062C
:1030E00070E086E00E94030C02C01092A40680915A
:1030F0003F0390914003A0914103B0914203A50189
:103100009401281B390B4A0B5B0BDA01C901803192
:103110009742A105B10578F080923F039092400359
:10312000A0924103B09242031092600660E084E5F1
:1031300096E00E9436068091630690916406A09105
:103140006506B0916606A5019401281B390B4A0B50
:103150005B0BDA01C9018C329140A105B10508F47D
:10316000F8C0809161068E3008F08E5087708064C0
:1031700080937C0080917A00806480937A008091B3
:103180007A00182F107486FDFACF40907800809155
:103190007900512C582A88E0ECE2F1E0D701019047
:1031A0000D928A95E1F7F701612C712C8191919133
:1031B0009C012E5C3F4F241535053CF1C297481603
:1031C00059061CF166E072E082E294E00E94B605C6
:1031D0000E94BE1063E272E082E294E00E94B605B3
:1031E000B301072C000C880B990B4AE00E94C41015
:1031F00067E272E082E294E00E94B605C2010E949A
:1032000028110E94BE10C30109C04FEF641A740A4E
:1032100054E06516710451F68FEF9FEF90936806A6
:10322000809367068F3FAFEF9A0739F410926B06D1
:1032300090936A06809369068CC080926306909290
:103240006406A0926506B0926606209169063091E8
:103250006A062817390709F47CC02091350330919C
:103260003603823051F1833009F453C0813009F4C0
:103270004AC02115310589F440913403242F30E0F0
:103280002F5F3F4F8091CB0490E02817390714F44B
:1032900011E0140F1093340348C02130310509F0B8
:1032A00044C0E09134033E9EF0011124E253FB4FF1
:1032B0000190F081E02D81E01BC02115310551F412
:1032C00080913403811102C08091CB04815080939E
:1032D00034032BC02130310541F5E09134033E9E8B
:1032E000F0011124E253FB4F0190F081E02D8FEFAC
:1032F000099580913403389EC001112482539B4F5D
:103300000E941D0812C02130310579F02F5F3F4F18
:1033100008C02115310519F41092340306C021505C
:10332000310930933603209335030E94AE07B8E08D
:10333000B093600660E084E596E00E9436060E9445
:103340009C0C60933F0370934003809341039093E0
:1033500042030E941E02CACC8091C006882309F451
:10336000ACCBA0ECB6E09601F6018D9181932E16C0
:103370003F06D9F788E0789EA001112480E090E014
:10338000D9016D919D01FC01E40FF51FEC56F94F39
:10339000678B01968830910599F78091A5068C304E
:1033A00031F08B3031F08A3031F01FE105C01FE77A
:1033B00003C01FE501C01FE30E94E911C6010E947E
:1033C000D3118EE40E94A91180E00E94A91180E02F
:1033D0000E94A911812F0E94A91188E40E94A911BD
:1033E0000E94E911C6010E94D3118EEB0E94A9111F
:1033F00087010E946311F80181938F01AE16BF0609
:10340000C1F7739452CBCF93DF93FC0184E68083A2
:103410008FEF9FE092838183DF011A968CE0ED01AC
:1034200019928A95E9F774836383453608F044E678
:103430004583CF01059691878087DF91CF910895CD
:10344000FF920F931F93CF93DF9310922504109256
:10345000240488EE93E0A0E0B0E0809326049093EB
:103460002704A0932804B093290429E631E030937F
:1034700023042093220425EC30E030932F04209382
:103480002E0424EC30E0309331042093300420ECFF
:1034900030E0309333042093320421EC30E0309359
:1034A00035042093340422EC30E030933704209329
:1034B000360426EC30E0309339042093380410921F
:1034C0003B0410923C0410923D0410923E04109272
:1034D000C2041092C1048093C3049093C404A093C7
:1034E000C504B093C6048BE791E09093C004809329
:1034F000BF0460E082E00E94C70BEFECF1E0E491D2
:10350000E093BD06EBEBF1E0E491F0E0EE0FFF1F7E
:10351000E155FE4F859194919093BF068093BE062E
:103520001092C8061092CA061092C906E8ECF6E09E
:10353000129286E0E03CF807D9F783E28093A20676
:103540001092A3061092A40689E08093A5068EE04F
:1035500090E0A0E0B0E08093A6069093A706A09329
:10356000A806B093A9061092AA0610926E061092B1
:103570006F06FF24F394F092700610927106109279
:103580007206F092730610927406F092750610920D
:10359000760681E090E00E94832190937A068093E2
:1035A000790684E592E090937C0680937B0682E620
:1035B00092E090937E0680937D068BE692E0909356
:1035C000800680937F061092880688EE93E0A0E044
:1035D000B0E08093890690938A06A0938B06B093FF
:1035E0008C0685E180938D0610928F0610928E06D0
:1035F00010929006109291061092920610929306E5
:1036000086E290E00E948321EC0185EC91E09983B1
:10361000888389E991E09B838A838FEF8C838D83F4
:1036200088E68E8B87E0E7E5F1E0DE0157960190B2
:103630000D928A95E1F787E0EEE5F1E0DE015E9616
:1036400001900D928A95E1F7D0937806C0937706A2
:103650008EE090E090936206809361068FEF9FEF7B
:10366000909368068093670690936A068093690634
:1036700010926B0610925706109256068DE891E054
:10368000909355068093540610925D0687E28093CE
:10369000580680E180935E0682E080935F06109278
:1036A000600644E165EA72E086EE95E00E94031A46
:1036B0004EE166EB72E08CEF95E00E94031A4EE15A
:1036C00067EC72E082E196E00E94031A4EE168ED39
:1036D00072E088E296E00E94031A4EE169EE72E021
:1036E0008EE396E00E94031A1092D1041092D00447
:1036F00082E191E09093E4048093E30482ED94E00E
:103700009093E6048093E5048091CB048F5F8093CF
:10371000CB048BEF92E09093CF048093CE04F09291
:10372000E9042091EE053091EF054091E9055091B3
:10373000EA050DEF12E061E070E08AEE94E00E948D
:10374000F40920910406309105064091FF0550913F
:10375000000661E070E086E095E00E94F4092091A7
:103760001A0630911B06409115065091160661E02D
:1037700070E082E295E00E94F409209130063091D9
:10378000310640912B0650912C0661E070E08EE3EB
:1037900095E00E94F4092091460630914706409139
:1037A00041065091420661E070E08AE595E00E9492
:1037B000F4098CEF92E0909377058093760582E090
:1037C00090E090937905809378058AEF92E090934A
:1037D0008C0580938B058BE093E090938E0580930E
:1037E0008D05F09291058091CB048F5F8093CB047F
:1037F0000DE714E02DEC34E04FE053E062E070E0C0
:1038000082E995E00E94F40908EE12E021E131E03E
:1038100040E253E062E070E08EEA95E00E94F40935
:1038200001ED17E02CEC34E040E051E063E070E0A3
:103830008AEC95E00E94F409DF91CF911F910F91DE
:10384000FF900895EF920F931F93CF93DF93E801BA
:1038500047FD02C034E001C034E1042E000C550BDA
:1038600057FF03C0519541955109E32E022F242F94
:10387000AE010E94421CCE01DF91CF911F910F91AA
:10388000EF900895A9E0B0E0E8E4FCE10C94C61FD5
:103890006A01122FB02E2BE3201720F0FF24F3949F
:1038A000F00E02C02CE3F22E0F2D27E0AE014F5F89
:1038B0005F4F0E949C1DBC014981842F897081301B
:1038C00031F0E1FC06C0E0FE06C090E205C09DE2DA
:1038D00003C09BE201C090E05E2D507143FF3CC0ED
:1038E000911102C083E001C084E0811718F4212FF8
:1038F000281B01C020E051110BC0F601822F30E2DD
:10390000882319F031938150FBCFC20ED11C20E0E7
:10391000992329F0D6019C93F60131966F01C601D7
:103920000396E2FE0AC03EE4D6013C9341E41196C0
:103930004C93119712963C9306C03EE6F6013083F5
:1039400041E641833283FC01322F40E2332309F404
:1039500042C041933150FACF42FF44C0911102C09E
:1039600083E001C084E0811718F4212F281B01C0D7
:1039700020E051110BC0F601822F30E2882319F0AC
:1039800031938150FBCFC20ED11C20E0992329F046
:10399000D6019C93F60131966F01C6010396E2FEB3
:1039A0000BC039E4D6013C933EE411963C93119749
:1039B00036E412963C9307C039E6F60130833EE6C2
:1039C000318336E63283FC01322F40E2332319F093
:1039D00041933150FBCFFC01E20FF11D10828EEFBD
:1039E0009FEFA6C021E030E0911102C020E030E05E
:1039F000161617061CF4FB01319602C0E1E0F0E058
:103A00002E0F3F1FBB2021F0EB2DF0E0319602C0BE
:103A1000E0E0F0E02E0F3F1FE12FF0E02E173F0710
:103A20001CF4121B212F01C020E08E2D887159F447
:103A3000F601822F30E2882319F031938150FBCFB9
:103A4000C20ED11C20E0992329F0D6019C93F601E7
:103A500031966F0151110BC0F601822F90E388233C
:103A600019F091938150FBCFC20ED11C20E00F2D95
:103A7000060F9A81342F307144FF03C0913309F44B
:103A80000150101624F4093018F008E001C001E0DC
:103A9000AB0177FF02C040E050E0FB01E41BF50BF7
:103AA000A1E0B0E0AC0FBD1FEA0FFB1F8EE2A82E15
:103AB0004B01801A91080B2D10E011950195110909
:103AC0004F3FBFEF5B0721F4D601AC9211966D0119
:103AD000641775072CF08416950614F4818101C0D3
:103AE00080E3415051093196D60111967D0140176E
:103AF000510724F0D6018C936701E2CF6417750754
:103B000039F4963320F4953319F4311101C081E36F
:103B1000F6018083F701822F90E2882319F09193B8
:103B20008150FBCFF701E20FF11D108280E090E0A1
:103B30002996ECE00C94E21F283008F027E03327A8
:103B4000DA01990F311D87FD9160009661057105BD
:103B500039F432602E5F3D9330E32A95E1F7089502
:103B60009F3F30F080387105610509F03C5F3C5F94
:103B70003D93913008F08068911DDF93CF931F93A0
:103B80000F93FF92EF92192F987F9695E92F9695B4
:103B90009695E90FFF27EE53FF4F99273327EE2421
:103BA000FF24A701E70105900894079428F4360F35
:103BB000E71EF81E491F511D660F771F881F991FAA
:103BC0000694A1F70590079428F4E70EF81E491F04
:103BD000561FC11D770F881F991F661F0694A1F7F6
:103BE0000590079428F4F80E491F561FC71FD11DD2
:103BF000880F991F661F771F0694A1F705900794F9
:103C000020F4490F561FC71FD81F990F661F771F33
:103C1000881F0694A9F784911095177041F0D695E6
:103C2000C79557954795F794E7941A95C1F7E8E635
:103C3000F0E06894159015913591659195910590F6
:103C40007FE27395E118F10A430B560BC90BD009BB
:103C5000C0F7E10CF11E431F561FC91FD01D7EF493
:103C6000703311F48A95E6CFE894015030F0080FD4
:103C70000AF40027021708F4202F2395022F7A3325
:103C800028F079E37D932A95E9F710C07D932A9572
:103C900089F6069497956795379517951794E118C7
:103CA000F10A430B560BC90BD00998F023957E916E
:103CB00073957A3308F070E37C932013B8F77E9104
:103CC00070617D9330F0839571E37D9370E32A9565
:103CD000E1F71124EF90FF900F911F91CF91DF91A9
:103CE000992787FD9095089591110C944B1F803270
:103CF00019F089508550C8F70895E89409C097FBDA
:103D00003EF490958095709561957F4F8F4F9F4FB2
:103D10009923A9F0F92F96E9BB279395F6958795F6
:103D200077956795B795F111F8CFFAF4BB0F11F4B9
:103D300060FF1BC06F5F7F4F8F4F9F4F16C0882360
:103D400011F096E911C0772321F09EE8872F762F96
:103D500005C0662371F096E8862F70E060E02AF0D7
:103D60009A95660F771F881FDAF7880F96958795C3
:103D700097F90895990F0008550FAA0BE0E8FEEF98
:103D800016161706E807F907C0F012161306E4071F
:103D9000F50798F0621B730B840B950B39F40A2618
:103DA00061F0232B242B252B21F408950A2609F4F6
:103DB000A140A6958FEF811D811D08950E94F11EDF
:103DC0000C94651F0E94571F38F00E945E1F20F060
:103DD000952311F00C944E1F0C94541F11240C9435
:103DE000991F0E94761F70F3959FC1F3950F50E0C5
:103DF000551F629FF001729FBB27F00DB11D639F9D
:103E0000AA27F00DB11DAA1F649F6627B00DA11D42
:103E1000661F829F2227B00DA11D621F739FB00DE8
:103E2000A11D621F839FA00D611D221F749F332758
:103E3000A00D611D231F849F600D211D822F762FF1
:103E40006A2F11249F5750409AF0F1F088234AF0CE
:103E5000EE0FFF1FBB1F661F771F881F915050403A
:103E6000A9F79E3F510580F00C944E1F0C94991FAA
:103E70005F3FE4F3983ED4F3869577956795B795C1
:103E8000F795E7959F5FC1F7FE2B880F911D9695DB
:103E9000879597F9089599278827089597F99F6737
:103EA00080E870E060E008959FEF80EC08950024C2
:103EB0000A941616170618060906089500240A948F
:103EC00012161306140605060895092E0394000C15
:103ED00011F4882352F0BB0F40F4BF2B11F460FFA4
:103EE00004C06F5F7F4F8F4F9F4F089557FD9058CD
:103EF000440F551F59F05F3F71F04795880F97FBAE
:103F0000991F61F09F3F79F0879508951216130667
:103F10001406551FF2CF4695F1DF08C01616170696
:103F20001806991FF1CF86957105610508940895CB
:103F3000E894BB2766277727CB0197F90895F9996D
:103F4000FECF92BD81BDF89A992780B50895262F9E
:103F5000F999FECF1FBA92BD81BD20BD0FB6F8946E
:103F6000FA9AF99A0FBE019608950E94F71FA59F2D
:103F7000900DB49F900DA49F800D911D1124089564
:103F80002F923F924F925F926F927F928F929F9269
:103F9000AF92BF92CF92DF92EF92FF920F931F9357
:103FA000CF93DF93CDB7DEB7CA1BDB0B0FB6F89408
:103FB000DEBF0FBECDBF09942A88398848885F8448
:103FC0006E847D848C849B84AA84B984C884DF80B9
:103FD000EE80FD800C811B81AA81B981CE0FD11D9D
:103FE0000FB6F894DEBF0FBECDBFED010895A29FBE
:103FF000B001B39FC001A39F700D811D1124911DBD
:10400000B29F700D811D1124911D0895991B79E0B7
:1040100004C0991F961708F0961B881F7A95C9F758
:104020008095089597FB072E16F4009407D077FD2E
:1040300009D00E944F2007FC05D03EF49095819551
:104040009F4F0895709561957F4F0895A1E21A2EB4
:10405000AA1BBB1BFD010DC0AA1FBB1FEE1FFF1F2C
:10406000A217B307E407F50720F0A21BB30BE40B7C
:10407000F50B661F771F881F991F1A9469F76095C3
:104080007095809590959B01AC01BD01CF0108957D
:104090000E94F71FB7FF0895821B930B0895AA1B78
:1040A000BB1B51E107C0AA1FBB1FA617B70710F023
:1040B000A61BB70B881F991F5A95A9F78095909555
:1040C000BC01CD010895EE0FFF1F0590F491E02D86
:1040D00009945058BB27AA270E9481200C94651F81
:1040E0000E94571F38F00E945E1F20F039F49F3F56
:1040F00019F426F40C94541F0EF4E095E7FB0C948D
:104100004E1FE92F0E94761F58F3BA1762077307F4
:104110008407950720F079F4A6F50C94981F0EF407
:10412000E0950B2EBA2FA02D0B01B90190010C01C7
:10413000CA01A0011124FF27591B99F0593F50F4DF
:10414000503E68F11A16F040A22F232F342F442737
:10415000585FF3CF469537952795A795F04053952F
:10416000C9F77EF41F16BA0B620B730B840BBAF0FF
:104170009150A1F0FF0FBB1F661F771F881FC2F76A
:104180000EC0BA0F621F731F841F48F4879577957E
:104190006795B795F7959E3F08F0B0CF9395880F38
:1041A00008F09927EE0F9795879508950E94EA20C9
:1041B0000C94651F0E945E1F58F00E94571F40F02C
:1041C00029F45F3F29F00C944E1F51110C94991F54
:1041D0000C94541F0E94761F68F39923B1F3552362
:1041E00091F3951B550BBB27AA276217730784070A
:1041F00038F09F5F5F4F220F331F441FAA1FA9F3A0
:1042000035D00E2E3AF0E0E832D091505040E6958D
:10421000001CCAF72BD0FE2F29D0660F771F881FEE
:10422000BB1F261737074807AB07B0E809F0BB0BE1
:10423000802DBF01FF2793585F4F3AF09E3F5105F5
:1042400078F00C944E1F0C94991F5F3FE4F3983E56
:10425000D4F3869577956795B795F7959F5FC9F7DE
:10426000880F911D9695879597F90895E1E0660F5F
:10427000771F881FBB1F621773078407BA0720F0D8
:10428000621B730B840BBA0BEE1F88F7E095089541
:104290000E944F216894B1110C94991F08950E94B7
:1042A0007E1F88F09F5798F0B92F9927B751B0F02B
:1042B000E1F0660F771F881F991F1AF0BA95C9F7AA
:1042C00014C0B13091F00E94981FB1E008950C9491
:1042D000981F672F782F8827B85F39F0B93FCCF344
:1042E000869577956795B395D9F73EF49095809527
:1042F000709561957F4F8F4F9F4F08950E94BA1E12
:1043000008F48FEF08950F931F93CF93DF938230BC
:10431000910510F482E090E0E091CE06F091CF0696
:1043200020E030E0A0E0B0E0309719F14081518109
:104330000281138148175907C8F08417950769F45B
:10434000109731F012960C93129713961C9327C076
:104350000093CE061093CF0622C02115310519F027
:104360004217530718F49A01BD01EF01DF01F8016C
:10437000DBCF21153105F9F0281B390B243031052D
:1043800080F48A819B816115710521F0FB01938383
:10439000828304C09093CF068093CE06FE013296AE
:1043A00044C0FE01E20FF31F819391932250310923
:1043B000398328833AC02091CC063091CD06232B37
:1043C00041F420912501309126013093CD062093B0
:1043D000CC0620912301309124012115310541F4AF
:1043E0002DB73EB74091270150912801241B350B72
:1043F000E091CC06F091CD06E217F307A0F42E1B56
:104400003F0B2817390778F0AC014E5F5F4F241738
:10441000350748F04E0F5F1F5093CD064093CC06F2
:104420008193919302C0E0E0F0E0CF01DF91CF9162
:104430001F910F910895CF93DF93009709F481C0E6
:10444000FC01329713821282A091CE06B091CF0662
:10445000109781F420813181820F931F2091CC0627
:104460003091CD062817390751F5F093CD06E0932A
:10447000CC0667C0ED0120E030E0CE17DF0740F446
:104480004A815B819E0141155105F1F0EA01F5CFAA
:10449000D383C28340815181840F951FC817D907E8
:1044A00059F488819981840F951F029691838083A6
:1044B0008A819B81938382832115310529F4F093AE
:1044C000CF06E093CE063DC0E901FB83EA83499124
:1044D0005991C40FD51FEC17FD0761F480819181BC
:1044E000840F951F0296E9019983888382819381C5
:1044F0009B838A83E0E0F0E012968D919C91139764
:10450000009719F0FD01DC01F7CF8D919C91119777
:104510009D012E5F3F4F820F931F2091CC0630915B
:10452000CD062817390769F4309729F41092CF0681
:104530001092CE0602C013821282B093CD06A093D1
:10454000CC06DF91CF91089581E090E0F8940C942F
:10455000B028FB01DC010D900020E9F711970190D4
:104560000D920020E1F70895FB01DC0101900D920E
:104570000020E1F70895FB0151915523A9F0BF01F7
:10458000DC014D9145174111E1F759F4CD0101903E
:10459000002049F04D9140154111C9F3FB01411133
:1045A000EFCF81E090E001970895AEE0B0E0EBED51
:1045B000F2E20C94CE1F0D891E8986E08C831A834B
:1045C00009838FEF9FE79E838D83AE01475E5F4F28
:1045D0006F89788DCE0101960E941023EF81F885B6
:1045E000E00FF11F10822E96E4E00C94EA1FAEE07B
:1045F000B0E0EDEFF2E20C94D01F85E08C838B8964
:104600009C899A838983AE01495E5F4F6D897E895B
:10461000CE0101960E948D262E96E2E00C94EC1FAE
:10462000ABE0B0E0E6E1F3E20C94C01F6C017B016B
:104630008A01FC0117821682838181FFCCC1CE01E1
:1046400001963C01F6019381F70193FD859193FF5B
:1046500081917F01882309F4BAC1853239F493FD31
:10466000859193FF81917F01853229F4B60190E015
:104670000E94FD27E7CF912C212C312CFFE1F3156F
:10468000D8F08B3279F038F4803279F08332A1F4AB
:10469000232D20611DC08D3261F0803369F4232DFC
:1046A000216016C0832D8260382EE32DE4603E2EFB
:1046B0002AC0F32DF8601DC037FC2DC020ED280F57
:1046C0002A3040F08E32B9F436FC81C1232D2064AB
:1046D000322E19C036FE06C08AE0989E200D1124A5
:1046E000922E11C0EAE02E9E200D1124222EF32DD1
:1046F000F0623F2E08C08C3621F4832D8068382E5E
:1047000002C0883641F4F70193FD859193FF8191B2
:104710007F018111B3CF982F9F7D9554933028F45A
:104720000C5F1F4F9FE399830DC0833631F08337B1
:1047300071F0833509F059C021C0F8018081898367
:104740000E5F1F4F88248394912C530113C02801BE
:10475000F2E04F0E511CF801A080B18036FE03C07C
:10476000692D70E002C06FEF7FEFC5010E94B42792
:104770004C018201F32DFF773F2E16C0280122E065
:10478000420E511CF801A080B18036FE03C0692D95
:1047900070E002C06FEF7FEFC5010E94A9274C01B6
:1047A000F32DF0683F2E820133FC1BC0822D90E078
:1047B00088169906B0F4B60180E290E00E94FD27C9
:1047C0002A94F4CFF50137FC859137FE81915F0182
:1047D000B60190E00E94FD2721102A9421E0821A60
:1047E00091088114910471F7E8C0843611F089367C
:1047F00041F5F80137FE07C06081718182819381A4
:104800000C5F1F4F08C060817181072E000C880B60
:10481000990B0E5F1F4FF32DFF763F2E97FF09C0B8
:1048200090958095709561957F4F8F4F9F4FF06861
:104830003F2E2AE030E0A3010E945228882E8618DD
:1048400045C0853731F4232D2F7EB22E2AE030E08B
:1048500025C0932D997FB92E8F36C1F018F4883575
:1048600079F0B5C0803719F0883721F0B0C0E92F52
:10487000E061BE2EB4FE0DC0FB2DF460BF2E09C05A
:1048800034FE0AC0292F2660B22E06C028E030E090
:1048900005C020E130E002C020E132E0F801B7FEBF
:1048A00007C060817181828193810C5F1F4F06C0B8
:1048B0006081718180E090E00E5F1F4FA3010E9434
:1048C0005228882E8618FB2DFF773F2E36FE0DC00E
:1048D000232D2E7FA22E891458F434FE0BC032FCF7
:1048E00009C0832D8E7EA82E05C0B82CA32C03C032
:1048F000B82C01C0B92CA4FE0FC0FE01E80DF11DBB
:104900008081803321F49A2D997EA92E09C0A2FEC0
:1049100006C0B394B39404C08A2D867809F0B3948A
:10492000A3FC11C0A0FE06C0B21488F4280C922C7F
:104930009B180EC0B21460F4B60180E290E00E94B1
:10494000FD27B394F7CFB21418F42B1802C0982C9B
:10495000212CA4FE10C0B60180E390E00E94FD2748
:10496000A2FE17C0A1FC03C088E790E002C088E562
:1049700090E0B6010CC08A2D867859F0A1FE02C0E5
:104980008BE201C080E2A7FC8DE2B60190E00E94BC
:10499000FD27891438F4B60180E390E00E94FD27DA
:1049A0009A94F7CF8A94F301E80DF11D8081B60146
:1049B00090E00E94FD278110F5CF222009F442CE1D
:1049C000B60180E290E00E94FD272A94F6CFF6011E
:1049D0008681978102C08FEF9FEF2B96E2E10C94C6
:1049E000DC1F20FD09C0FC0123FD05C022FF02C021
:1049F0007383628351834083089544FD17C046FD4D
:104A000017C0AB01BC01DA01FB01AA0FBB1FEE1FEF
:104A1000FF1F1094D1F74A0F5B1F6E1F7F1FCB0142
:104A2000BA01660F771F881F991F09C033E001C0C4
:104A300034E0660F771F881F991F3150D1F7620F3E
:104A4000711D811D911D08950F931F93CF93DF93C7
:104A50008C01C8010E94BF27EC0197FD08C00E948D
:104A6000741E892BB1F7B801CE010E943928CE01FE
:104A7000DF91CF911F910F9108958F929F92AF92E6
:104A8000BF92EF92FF920F931F93CF93DF938C010E
:104A9000D62F7A01B22E0E94BF279C0133272B32DA
:104AA000310531F02D32310561F48B2D8068B82E3F
:104AB000D15011F480E068C0C8010E94BF2797FD63
:104AC000F9CFCB2DCD7F2B2D207309F58033F9F451
:104AD000AA24AA94AD0E09F443C0C8010E94BF27BE
:104AE00097FD3EC09C012F7D33272835310549F4C1
:104AF000C264D250A9F1C8010E94BF2797FF07C026
:104B00002FC0B6FE02C0C26001C0C261DA2D812C86
:104B1000912C540120ED280F283080F0C4FF04C0F0
:104B2000B8010E94392819C02A3040F0C6FFF8CFDA
:104B30002F7D3FEE320F363098F727504C2FC501AE
:104B4000B4010E94FD244B015C01C260D15059F0B8
:104B5000C8010E94BF2797FFDDCFC1FD04C0AACFC7
:104B6000812C912C5401C7FF08C0B094A09490945C
:104B70008094811C911CA11CB11C2C2FB501A40197
:104B8000C7010E94F12481E0DF91CF911F910F9125
:104B9000FF90EF90BF90AF909F908F900895A0E20C
:104BA000B0E0E5EDF5E20C94C31F5C01962E7A01AE
:104BB000F9018E010F5F1F4F680180E2D8011D923D
:104BC0008A95E9F7D50113968C9080E090E0612CEE
:104BD000712C30E061E070E083FC259183FE21912F
:104BE0008F01522E211103C080E090E092C02E353B
:104BF00011F4009751F1432F50E0481759073CF446
:104C00002D3559F12D3219F4772009F103C07720A1
:104C100009F46AC0452D469546954695D601A40FE0
:104C2000B11D452D47708B0102C0000F111F4A9521
:104C3000E2F7A8015C91452B4C93651459F056148A
:104C400010F45394E7CF5A94E5CF31E004C07724B1
:104C5000739401C0712C0196BFCF772019F08E811B
:104C600080628E83311103C08824839417C0F601BB
:104C70009E012F5D3F4F8081809581932E173F07C6
:104C8000D1F7F2CFE114F10429F0D7018C93F701A9
:104C900031967F019A94812C9920F9F0C5010E94E8
:104CA000BF2797FD18C0FC01FF2723E0F595E79586
:104CB0002A95E1F7EC0DFD1D208130E0AC01477035
:104CC000552702C0359527954A95E2F720FDDACFA2
:104CD000B5010E943928811087CFE114F10411F049
:104CE000D7011C92C80115C0422F4695469546959E
:104CF000D601A40FB11D422F47708B0102C0000FD7
:104D0000111F4A95E2F7A8015C91452B4C93622E46
:104D1000A2CFA096EFE00C94DF1FA0E0B0E0E3E9A3
:104D2000F6E20C94C31F6C01EB015A01FC011782DF
:104D30001682512CF601E380FE01E3FC8591E3FE2F
:104D40008191182FEF01882309F4EEC090E00E94B2
:104D5000741E892B21F0C6010E942425EBCF153249
:104D600041F4FE01E3FC1591E3FE1191EF011532D0
:104D700081F4C6010E94BF2797FDD4C0412F50E0A7
:104D80009C01332724173507A9F2B6010E94392860
:104D9000CBC01A3239F4E3FC1591E3FE1191EF0117
:104DA00001E001C000E0F12C20ED210F2A3080F459
:104DB00002606F2D70E080E090E040E20E94FD24F0
:104DC000F62EFE01E3FC1591E3FE1191EF01ECCF0D
:104DD00001FF03C0F11003C0A7C0FF24FA941836E6
:104DE00019F01C3651F010C0FE01E3FC1591E3FEF2
:104DF0001191EF01183641F408600460FE01E3FCF4
:104E00001591E3FE1191EF01112309F48DC0612F7B
:104E100070E082E691E00E949E27892B09F484C00D
:104E200000FD07C0F50180809180C50102965C01FC
:104E300002C0812C912C1E3651F4F6014681578117
:104E400060E070E0202FC4010E94F12473CF13367C
:104E5000A9F401FD02C0FF24F394C6010E94BF27FC
:104E600097FD60C08114910429F0F4018083C4018E
:104E700001964C01FA94F110F0CF50C01B3559F453
:104E80009E01A4016F2DC6010E94CF25EC01892B44
:104E900009F044C03EC0C6010E94242597FD42C0CF
:104EA0001F3661F128F4143639F1193651F128C052
:104EB000133771F0153701F123C08114910429F0E3
:104EC000F4016082C40101964C01FA94FF2071F054
:104ED000C6010E94BF273C0197FD08C00E94741EB6
:104EE000892B59F3B601C3010E943928811491041A
:104EF000A9F0F401108212C0006203C0006101C079
:104F00000064202FA4016F2DC6010E943D25811150
:104F100005C0F6018381807329F406C000FD0ACF25
:104F2000539408CF552019F0852D90E002C08FEFE3
:104F30009FEFCDB7DEB7EFE00C94DF1FFC010590CB
:104F4000061621F00020D9F7C00108953197CF014E
:104F50000895FC010590615070400110D8F78095CC
:104F600090958E0F9F1F0895FC0161507040019035
:104F70000110D8F7809590958E0F9F1F0895CF93BD
:104F8000DF93EC012B8120FF33C026FF0AC02F7B6B
:104F90002B838E819F8101969F838E838A8190E0EF
:104FA00029C022FF0FC0E881F9818081082E000C02
:104FB000990B009719F420622B831AC03196F9835C
:104FC000E8830EC0EA85FB85099597FF09C02B8110
:104FD000019611F080E201C080E1822B8B8308C032
:104FE0002E813F812F5F3F4F3F832E83992702C041
:104FF0008FEF9FEFDF91CF9108950F931F93CF9382
:10500000DF93FB01238121FD03C08FEF9FEF2CC0B5
:1050100022FF16C0468157812481358142175307EC
:1050200044F4A081B1819D012F5F3F4F31832083E4
:105030008C93268137812F5F3F4F3783268314C09F
:105040008B01EC01FB010084F185E02D0995892B92
:10505000E1F6D80116968D919C91179701961796B7
:105060009C938E931697CE01DF91CF911F910F9154
:105070000895FB01238120FF12C026FD10C08F3F41
:105080003FEF930761F082832F7D20642383268185
:1050900037812150310937832683992708958FEF6F
:1050A0009FEF0895FA01AA27283051F1203181F1AC
:1050B000E8946F936E7F6E5F7F4F8F4F9F4FAF4F20
:1050C000B1E03ED0B4E03CD0670F781F891F9A1F33
:1050D000A11D680F791F8A1F911DA11D6A0F711DE7
:1050E000811D911DA11D20D009F468943F912AE0F3
:1050F000269F11243019305D3193DEF6CF010895DB
:10510000462F4770405D4193B3E00FD0C9F7F6CF0B
:10511000462F4F70405D4A3318F0495D31FD4052D3
:10512000419302D0A9F7EACFB4E0A6959795879569
:1051300077956795BA95C9F7009761057105089548
:105140009B01AC010A2E06945795479537952795F4
:10515000BA95C9F7620F731F841F951FA01D08958C
:04516000F894FFCFF1
:105164004C65644272742E207465737420302F3140
:1051740000015F5F5F5F5F5F5F5F5F5F5F5F5F5FF8
:105184005F5F000000D00680002000009C01FE014B
:10519400A102DD0320000000001F003B005A00783C
:1051A400009700B500D400F300110130014E010056
:1051B40000400014005400000102040506037F7F30
:1051C4003F3F1FFF0700000000AF011C014601FC28
:1051D4000177015501690100000000B5028802E56C
:1051E400025C0280026C025D02000000007A061C70
:1051F40001E502E402000000005205F703A703E101
:10520400039203FD043A04BD042104900311048EA7
:10521400038E03E4028C038A03880358033E03309D
:1052240003000000006D055E04BE0325643A256496
:105234003A25640031373A32303A30390025732048
:105244002564202564004D617220323520323032CD
:105254003000642E6D2E5920483A690074313D00A7
:10526400202074323D00476574427574746F6E4E2D
:10527400756D626572427956616C75652E2E2E2E9F
:105284002E2E00693D2000202020202076616C75A0
:10529400653D200064656D6F4D6F64653D004C6530
:1052A400644272742E207465737420302F3100258B
:1052B40063256400776141646848696D73794D447E
:1052C4005900616D706D414D504D0053756E4D6FB9
:1052D4006E54756557656454687546726953617494
:1052E4004A616E4665624D61724170724D61794AE0
:1052F400756E4A756C4175675365704F63744E6F74
:105304007644656300436F6C6457686974655F3104
:10531400202020202000436F6C6457686974655F07
:10532400322020202020005761726D57686974650F
:105334005F3120202020200052656420202020207E
:10534400202020202020202000426C756520202071
:1053540020202020202020202000506172616D5FD9
:1053640031202020202020202020005F5F5F005378
:1053740061766520284E3D30202F20593D3129008B
:1053840054696D65723A4F4E3D312F4F46463D305C
:04539400000D0A00FE
:00000001FF
